:040000006EEF0FF0A0
:020006001200E6
:1000080000C015F0F2A40FD0FC0ED76E170ED66EF6
:10001800010E206EFA0E1E5C02E21E2A03D01E6A32
:0C002800010E1F6EF29415C000F01100D4
:100034000134083609360450085E0550D8A0053C42
:10004400095E003601360F0E0C6E0134083609368F
:10005400045000A006D0085E0550D8A0053C095EF7
:1000640005D008260550D8B0053C092600360136CF
:100074000C2EEBD700B006D0045008260550D8B09B
:08008400053C092600001200F2
:10008C00C7B409D01F0EC514016E0150000A03E15C
:0A009C00010E006E01D0006A120090
:1000A6000001B86BB96BB951120802E1B8518E085C
:1000B60008E3E9DF005201E004D00001B84BB92B98
:1000C600F2D70001120EB95D02E18F0EB85D03E3AF
:1000D6007B0E006E05D0C580C5A001D0FDD7006A95
:0200E600120006
:1000E8000450000A08E10550000A05E1FF0E006E01
:1000F8007F0E016E57D00D6A096A086A0150001018
:10010800D8B4000C015005180A6E0ABE0D1E0B6A01
:1001180005AE05D0041E051E042AD8B4052A01AE72
:1001280005D0001E011E002AD8B4012A015005106E
:100138000A6E0ABE10D07ADF0BB020D00DAE000CCC
:10014800001E011E002AD8B4012A081E091E082A0A
:10015800D8B4092A000C05AE0DD001BE07D0015055
:10016800096E0050086E016A006AE8D7016A006AE1
:10017800002A000C011E001E0B2ADDD7082AD8B45D
:10018800092A0450085CD8A4D9D70550095CD8A41A
:10019800D5D7096A086A002AD8B4012A01AECED791
:0601A8000000FF0C120034
:1001AE000B6A0A6A096A00500402F4CF09F0F3CF11
:1001BE0008F001500502F4CF0BF0F3CF0AF0005017
:1001CE000502F3500926F4500A22E86A0B22015068
:1001DE000402F3500926F4500A22E86A0B2208C0E2
:1001EE0000F009C001F00AC002F00BC003F01200CB
:1001FE007FA202D00000FCD77F9CB9C075FFB8C0AB
:10020E0074FFBAC073FF7F9E7F84F2CF00F0F29E20
:10021E00550E7E6EAA0E7E6E7F8200BE02D0F29EBC
:08022E0001D0F28E7F94120052
:100236000001BC6BB8C0E9FFB9C0EAFFBAC0D9FF7C
:10024600BBC0DAFFEE50DE5C02E2010EBC6FB8C046
:10025600E9FFB9C0EAFFBAC0D9FFBBC0DAFFEE506A
:10026600DE1811E1010EB825E96E000EB921EA6E1D
:10027600010EBA25D96E000EBB21DA6EEE50DE5C99
:1002860002E2010EBC6FB8C0E9FFB9C0EAFFBAC00E
:10029600D9FFBBC0DAFFEE50DE1820E1010EB8250B
:1002A600E96E000EB921EA6E010EBA25D96E000E6E
:1002B600BB21DA6EEE50DE1811E1020EB825E96EAA
:1002C600000EB921EA6E020EBA25D96E000EBB21C8
:1002D600DA6EEE50DE5C02E2010EBC6FB8C0E9FFDA
:1002E600B9C0EAFFBAC0D9FFBBC0DAFFEE50DE18CC
:1002F6002FE1010EB825E96E000EB921EA6E010E56
:10030600BA25D96E000EBB21DA6EEE50DE1820E15A
:10031600020EB825E96E000EB921EA6E020EBA2564
:10032600D96E000EBB21DA6EEE50DE1811E1030E17
:10033600B825E96E000EB921EA6E030EBA25D96E0C
:10034600000EBB21DA6EEE50DE5C02E2010EBC6FDF
:10035600B8C0E9FFB9C0EAFFBAC0D9FFBBC0DAFF2F
:10036600EE50DE182FE1010EB825E96E000EB92118
:10037600EA6E010EBA25D96E000EBB21DA6EEE507A
:10038600DE1820E1020EB825E96E000EB921EA6EEC
:10039600020EBA25D96E000EBB21DA6EEE50DE18BB
:1003A60011E1030EB825E96E000EB921EA6E030EBF
:1003B600BA25D96E000EBB21DA6EEE50DE1802E1C8
:0A03C600020EBC6FBCC000F0120074
:0403D000C5841200CE
:1003D4009E96B8C0C9FFC7A401D0FDD79EB601D070
:1003E400FDD7C5BC02D0006A03D0C584020E006EDE
:0203F4001200F5
:1003F6000001AF6BB06BB16BB26B460EA725E96E11
:10040600000EA821EA6EA951EE24AF6FAA51EE2084
:10041600B06FAB51EE20B16FAC51EE20B26FAE6B48
:100426000A0EAE5D6DE2070E006E000E016EAEC0E6
:1004360004F0000E056EB8DEA7510026A851012271
:10044600050E0024E96E000E0120EA6EEE50010A48
:1004560055E1070E006E000E016EAEC004F0000EF0
:10046600056EA2DE0050A725E16E0150A821E26EBE
:10047600ADC0E6FF070E006E000E016EAEC004F0C2
:10048600000E056E91DEA7510026A8510122010E2D
:100496000024E16E000E0120E26EAFC0E6FFB0C0A0
:1004A600E6FFB1C0E6FFB2C0E6FF070E006E000E23
:1004B600016EAEC004F0000E056E76DEA751002672
:1004C600A8510122050E0024E16E000E0120E26E05
:1004D600E66A070E006E000E016EAEC004F0000E56
:1004E600056E62DEA7510026A8510122060E0024E1
:1004F600E16E000E0120E26EE66A02D0AE2B90D7C6
:020506001200E1
:100508000001B36B750EB86F000EB96F830EBA6F2A
:10051800000EBB6F8CDE0050010AD8A490D083C0B7
:10052800A7F084C0A8F085C0A9F086C0AAF0020E82
:10053800A725B66F040EA825B46FB56B000EB523BA
:100548000A0E046E000E056EB4C000F0B5C001F0CE
:10055800C7DD0001B651002600C0A7F00A0E046EE0
:10056800000E056EB4C000F0B5C001F0B9DD08C0DA
:1005780000F009C001F000C0A8F098C0ABF000017D
:10058800AB33AB9FAB33AB9FAB33AB9FAB33AB9FC3
:100598000F0E9815AC6F97C0ADF0AD33AD9FAD336E
:1005A800AD9FAD33AD9FAD33AD9F0F0E9715B76FB0
:1005B800B7C0AEF0020EAB25B66F040EAC25B46F13
:1005C800B56B000EB5230A0E046E000E056EB4C09E
:1005D80000F0B5C001F084DD0001B651002600C06E
:1005E800AFF00A0E046E000E056EB4C000F0B5C080
:1005F80001F076DD08C000F009C001F000C0B0F0DD
:10060800ADC0B1F0B7C0B2F0AB0E0001B86F000ECC
:10061800B96F750EBA6F000EBB6F09DE005202E0AB
:10062800010EB36FA70EB86F000EB96FAF0EBA6F99
:10063800000EBB6FFCDD005202E0010EB36F830EAB
:10064800B86F000EB96F750EBA6F000EBB6FEFDD95
:100658000050010A3AE183C0A7F084C0A8F085C021
:10066800A9F086C0AAF098C0ABF0AB33AB9FAB3310
:10067800AB9FAB33AB9FAB33AB9F0F0E9815AC6FF3
:1006880097C0ADF0AD33AD9FAD33AD9FAD33AD9FEA
:10069800AD33AD9F0F0E9715AE6FAB0EB86F000E52
:1006A800B96F750EBA6F000EBB6FC1DD00520DE059
:1006B800A70EB86F000EB96FAB0EBA6F000EBB6F06
:1006C800B6DD005202E0010EB36FB3C000F01200B5
:1006D8000001B86BB96B75C0BAF08DDD010E000171
:1006E800B86F000EB96F76C0BAF085DD020E000152
:1006F800B86F000EB96F77C0BAF07DDD030E000148
:10070800B86F000EB96F78C0BAF075DD040E00013D
:10071800B86F000EB96F83C0BAF06DDD050E000129
:10072800B86F000EB96F84C0BAF065DD060E00011F
:10073800B86F000EB96F85C0BAF05DDD070E000115
:10074800B86F000EB96F86C0BAF055DD080E00010B
:10075800B86F000EB96F71C0BAF04DDD090E000117
:10076800B86F000EB96F72C0BAF045DD0A0E00010D
:10077800B86F000EB96F73C0BAF03DDD0B0E000103
:10078800B86F000EB96F74C0BAF035DD0C0E0001F9
:10079800B86F000EB96F92C0BAF02DDD0D0E0001D2
:1007A800B86F000EB96F93C0BAF025DD0E0E0001C8
:1007B800B86F000EB96F94C0BAF01DDD0F0E0001BE
:1007C800B86F000EB96F95C0BAF015DD100E0001B4
:0E07D800B86F000EB96F18C0BAF00DDD120038
:1007E6005FDCD00E0001B86FF2DD0001B86BEFDD03
:1007F600A7C0E9FFA8C0EAFFEECFB8F0E8DD010E1A
:100806000001A725E96E000EA821EA6EEECFB8F02A
:10081600DEDD020E0001A725E96E000EA821EA6EB4
:0A082600EECFB8F0D4DDD1DD1200F2
:100830007F9CA8C075FFA7C074FF7F9E7F8073CF89
:0408400000F01200B2
:100844000001A751550A12E11850000A08E117A245
:1008540005D01E0E166E010E006E5DD007D017A4D3
:1008640005D01E0E166E010E006E55D0A751440A17
:1008740012E11850000A08E117A405D01E0E166EE6
:10088400010E006E48D007D017A205D01E0E166EBA
:10089400010E006E40D0A751520A12E11850000A0E
:1008A40008E117A805D01E0E166E010E006E33D097
:1008B40007D017A005D01E0E166E010E006E2BD0A9
:1008C400A7514C0A12E11850000A08E117A005D0FC
:1008D4001E0E166E010E006E1ED007D017A805D08E
:1008E4001E0E166E010E006E16D0A751430A12E1B9
:1008F4001850000A08E117A605D01E0E166E010E48
:10090400006E09D007D017A605D01E0E166E010E74
:08091400006E01D0006A120020
:10091C00550E0001A76F90DF005220E07F0EE96EAC
:10092C00000EEA6E1D50E926D8B0EA2A090EEE5CDC
:10093C0015E27F0E016E000E026E1D500126D8B01E
:10094C00022A01C0E9FF02C0EAFFEE50010F006E5F
:10095C0001C0E1FF02C0E2FF00C0E6FF440EA76F3A
:10096C006BDF00521FE07F0EE96E000EEA6E1D5029
:10097C00E926D8B0EA2AEE50000814E27F0E016E88
:10098C00000E026E1D500126D8B0022A01C0E9FFEC
:10099C0002C0EAFFEE04006E01C0E1FF02C0E2FFFC
:1009AC0000C0E6FF4C0EA76F47DF005204E01D505D
:1009BC000008D8A01D06520EA76F3EDF005204E0BF
:1009CC00030E1D5CD8A01D2A430EA76F35DF005205
:1009DC0010E07F5192190CE18051931909E181517A
:1009EC00941906E18251951903E10A0E1C6E01D08F
:1009FC001C6A7FC079F080C07AF081C07BF082C025
:040A0C007CF0120068
:100A10000D0E0001796F0D0E7A6F0D0E7B6F0D0EAE
:100A20007C6F550EA76F0EDF00520CE0246A0B0E90
:100A30001C6E236A75C099F076C09AF077C09BF05F
:100A400078C09CF0440EA76FFDDE00520DE0010E51
:100A5000246E0B0E1C6E236A83C08EF084C08FF050
:100A600085C090F086C091F04C0EA76FEBDE00526F
:100A70001FE098C08AF08A338A9F8A338A9F8A331C
:100A80008A9F8A338A9F0F0E98158B6F97C08CF0C0
:100A90008C338C9F8C338C9F8C338C9F8C338C9FAE
:100AA0000F0E97158D6F020E246E0B0E1C6E236AAF
:100AB000520EA76FC7DE005205E0030E246E0B0E28
:100AC0001C6E236A430EA76FBDDE005205E0040EC4
:0A0AD000246E0B0E1C6E236A120048
:100ADA000C0E0001796F0C0E7A6F0C0E7B6F0C0EE8
:100AEA007C6F550EA76FA9DE005206E1440EA76F70
:100AFA00A4DE005201E109D01D6A7F6B806B816B15
:100B0A00826B1E0E166E010E1C6E4C0EA76F95DEC2
:100B1A0000520EE0520EA76F90DE005209E01870E4
:100B2A00100EB86F000EB96F18C0BAF0FFEC00F0E3
:100B3A00430E0001A76F81DE005209E01D6A7F6B38
:100B4A00806B816B826B1E0E166E030E1C6E12007A
:100B5A0000017F5171195DE1805172195AE1815189
:100B6A00731957E18251741954E1C9DC005235E016
:100B7A00270EA76F000EA86F010EA96F000EAA6FAD
:100B8A00AB6FAC6F010EAD6F31DC270EA76F000E95
:100B9A00A86F050EA96F000EAA6FAB6FAC6F030E9C
:100BAA00AD6F24DC270EA76F000EA86F190EA96F70
:100BBA00000EAA6FAB6FAC6F020EAD6F17DC270E7B
:100BCA00A76F000EA86F1D0EA96F000EAA6FAB6F5C
:100BDA00AC6F030EAD6F0ADC1CD0270EA76F000E98
:100BEA00A86F010EA96F000EAA6FAB6FAC6F010E52
:100BFA00AD6FFBEC01F0270EA76F000EA86F050E74
:100C0A00A96F000EAA6FAB6FAC6F030EAD6FFBEC52
:060C1A0001F01C6A12004B
:100C2000550E0001A76F0EDE005220E07F0EE96E28
:100C3000000EEA6E1D50E926D8B0EA2A090EEE5CD5
:100C400015E27F0E016E000E026E1D500126D8B017
:100C5000022A01C0E9FF02C0EAFFEE50010F006E58
:100C600001C0E1FF02C0E2FF00C0E6FF440EA76F33
:100C7000E9DD00521FE07F0EE96E000EEA6E1D50A6
:100C8000E926D8B0EA2AEE50000814E27F0E016E81
:100C9000000E026E1D500126D8B0022A01C0E9FFE5
:100CA00002C0EAFFEE04006E01C0E1FF02C0E2FFF5
:100CB00000C0E6FF4C0EA76FC5DD005204E01D50DA
:100CC0000008D8A01D06520EA76FBCDD005204E03C
:100CD000030E1D5CD8A01D2A430EA76FB3DD005282
:100CE00002E0020E1C6E7FC079F080C07AF081C0F5
:080CF0007BF082C07CF01200D1
:100CF8009E96C5869EB601D0FDD7C9CF01F00001EA
:100D0800A251000A02E1C58A01D0C59A9E96C588FB
:0C0D18009EB601D0FDD701C000F0120013
:100D24000001A56BA66BA56B0A0EA55D5EE2070E1E
:100D3400006E000E016EA5C004F0000E056ED7EC27
:100D440000F0A2510026A3510122050E0024E96EF1
:100D5400000E0120EA6EEE50000A45E1070E006E17
:100D6400000E016EA5C004F0000E056ED7EC00F075
:100D7400A2510026A3510122060E0024E96E000EA2
:100D84000120EA6EEE50010A2EE1070E006E000EFD
:100D9400016EA5C004F0000E056ED7EC00F0005003
:100DA400A225E96E0150A321EA6EEECF01F00150B5
:100DB400A41919E1070E006E000E016EA5C004F01F
:100DC400000E056ED7EC00F0A2510026A3510122BB
:100DD400050E0024E16E000E0120E26E010EE66EA7
:100DE400010EA66F02D0A52B9FD7A6C000F012005B
:100DF4000001A76BA86B1ADD00C075F0010EA76F88
:100E0400000EA86F13DD00C076F0020EA76F000E6F
:100E1400A86F0CDD00C077F0030EA76F000EA86F5B
:100E240005DD00C078F0040EA76F000EA86FFEDC8D
:100E340000C083F0050EA76F000EA86FF7DC00C09A
:100E440084F0060EA76F000EA86FF0DC00C085F0DA
:100E5400070EA76F000EA86FE9DC00C086F0080E2D
:100E6400A76F000EA86FE2DC00C071F0090EA76F37
:100E7400000EA86FDBDC00C072F00A0EA76F000E34
:100E8400A86FD4DC00C073F00B0EA76F000EA86F20
:100E9400CDDC00C074F00C0EA76F000EA86FC6DC8A
:100EA40000C092F00D0EA76F000EA86FBFDC00C04B
:100EB40093F00E0EA76F000EA86FB8DC00C094F07C
:100EC4000F0EA76F000EA86FB1DC00C095F0100ED6
:0E0ED400A76F000EA86FAADC00C018F0120075
:0A0EE200C582C5A201D0FDD71200A1
:100EEC00A2C0A3F00001A3AF02D0849401D08484EB
:100EFC00A3916CD083908290809E849284908294F3
:100F0C00808C8ED083808290809E84828480828428
:100F1C00808C86D083908290808E84928490828400
:100F2C00809C7ED083908290809E849284808284E8
:100F3C00809C76D083808290809E848284808294F0
:100F4C00809C6ED083908280809E849284808294D8
:100F5C00809C66D083908280809E849284908294C0
:100F6C00809C5ED083908290809E848284808284D8
:100F7C00808C56D083908290809E849284908294B0
:100F8C00809C4ED083908290809E849284808294A8
:100F9C00809C46D0010EA76F03EC00F0838082800A
:100FAC00808E849284808284808C3AD083808280EC
:100FBC00808E848284808284809C32D083908280D4
:100FCC00808E849284808284809C2AD0A251000AD4
:100FDC0091E0A251010A96E0A251020A9BE0A251B3
:100FEC00030AA0E0A251040AA5E0A251050AAAE056
:100FFC00A251060AAFE0A251070AB4E0A251080AB6
:10100C00B9E0A251090ABEE0A2510A0AC3E0A251FA
:10101C000B0AC4E0A2510C0AC9E0A2510D0ACEE0A1
:02102C001200B0
:10102E00949894968B988B9694889486C79EC79C1A
:06103E00380EC66E120020
:101044000001A46B0A0EA45D56E2070E006E000EAA
:10105400016EA4C004F0000E056ED7EC00F0005041
:10106400A225E16E0150A321E26EE66A070E006E2E
:10107400000E016EA4C004F0000E056ED7EC00F063
:10108400A2510026A3510122010E0024E16E000E9C
:101094000120E26EE66AE66AE66AE66A070E006E18
:1010A400000E016EA4C004F0000E056ED7EC00F033
:1010B400A2510026A3510122050E0024E16E000E68
:1010C4000120E26E010EE66E070E006E000E016E48
:1010D400A4C004F0000E056ED7EC00F0A251002667
:1010E400A3510122060E0024E16E000E0120E26EDF
:1010F400E66AA42BA7D7460EA225E16E000EA32113
:0C110400E26EE66AE66AE66AE66A12003D
:0A11100081808186818481821200B3
:10111A008BD2550E0001A76F22EC04F0005226E094
:10112A002350000A04E1020E995DD8A0992B23509E
:10113A00020A04E1050E9B5DD8A09B2B2350010AED
:10114A0004E1090E9A5DD8A09A2B2350030A06E1FE
:10115A00090E9C5D03E29C51010F786F020E995DA6
:10116A0005E39A51030802E2030E9A6F440EA76F31
:10117A0022EC04F000521FE0990EE96E000EEA6EAE
:10118A002350E926D8B0EA2AEE50000814E2990E54
:10119A00016E000E026E23500126D8B0022A01C049
:1011AA00E9FF02C0EAFFEE04006E01C0E1FF02C0DF
:1011BA00E2FF00C0E6FF520EA76F22EC04F00052D5
:1011CA0004E0030E235CD8A0232A4C0EA76F22EC5E
:1011DA0004F0005204E023500008D8A02306430E6E
:1011EA00A76F22EC04F000520EE099C075F09AC085
:1011FA0076F09BC077F09CC078F06CEC03F00A0E96
:10120A001C6E010E216E99C079F09AC07AF09BC0CB
:10121A007BF09CC07CF0216A1BD2550E0001A76F9F
:10122A0022EC04F0005224E02350000A04E1020EEA
:10123A008E5DD8A08E2B2350020A04E1050E8E5D26
:10124A00D8A0902B2350010A04E1090E8F5DD8A083
:10125A008F2B2350030A04E1090E915DD8A0912B2C
:10126A00020E8E5D05E38F51030802E2030E8F6FB3
:10127A00440EA76F22EC04F000521FE08E0EE96EB6
:10128A00000EEA6E2350E926D8B0EA2AEE5000088A
:10129A0014E28E0E016E000E026E23500126D8B0A3
:1012AA00022A01C0E9FF02C0EAFFEE04006E01C093
:1012BA00E1FF02C0E2FF00C0E6FF520EA76F22EC78
:1012CA0004F0005204E0030E235CD8A0232A4C0E3B
:1012DA00A76F22EC04F0005204E023500008D8A0C3
:1012EA002306430EA76F22EC04F000520EE08EC0D4
:1012FA0083F08FC084F090C085F091C086F06CECCA
:10130A0003F00A0E1C6E010E216E8EC079F08FC09A
:10131A007AF090C07BF091C07CF0216A99D1550E89
:10132A000001A76F22EC04F000521CE02350000ACF
:10133A0004E1020E8A5DD8A08A2B2350020A04E136
:10134A00050E8C5DD8A08C2B2350010A04E1090EEE
:10135A008B5DD8A08B2B2350030A04E1090E8D5D07
:10136A00D8A08D2B440EA76F22EC04F000521FE088
:10137A008A0EE96E000EEA6E2350E926D8B0EA2AF0
:10138A00EE50000814E28A0E016E000E026E23501F
:10139A000126D8B0022A01C0E9FF02C0EAFFEE0422
:1013AA00006E01C0E1FF02C0E2FF00C0E6FF520E7C
:1013BA00A76F22EC04F0005204E0030E235CD8A0CD
:1013CA00232A4C0EA76F22EC04F0005204E02350AB
:1013DA000008D8A02306430EA76F22EC04F000529F
:1013EA002BE0876B8CC000F000360090003600902E
:1013FA00003600900036009000C088F08D5100122F
:10140A0000C088F08AC000F00036009000360090D4
:10141A00003600900036009000C089F08B5100120F
:10142A0000C089F0870EA76F000EA86FF3EC03F0D7
:10143A000A0E1C6E010E216E8AC079F08BC07AF0FA
:10144A008CC07BF08DC07CF0216A02D1550E000160
:10145A00A76F22EC04F0005220E0710EE96E000E34
:10146A00EA6E2350E926D8B0EA2A090EEE5C15E2A4
:10147A00710E016E000E026E23500126D8B0022AA8
:10148A0001C0E9FF02C0EAFFEE50010F006E01C081
:10149A00E1FF02C0E2FF00C0E6FF0001440EA76FB1
:1014AA0022EC04F000521FE0710EE96E000EEA6EA3
:1014BA002350E926D8B0EA2AEE50000814E2710E49
:1014CA00016E000E026E23500126D8B0022A01C016
:1014DA00E9FF02C0EAFFEE04006E01C0E1FF02C0AC
:1014EA00E2FF00C0E6FF0001520EA76F22EC04F0F3
:1014FA00005204E0030E235CD8A0232A00014C0EFC
:10150A00A76F22EC04F0005204E023500008D8A090
:10151A0023060001430EA76F22EC04F0005204E0F8
:10152A006CEC03F00A0E1C6E71C079F072C07AF08E
:10153A0073C07BF074C07CF08BD0550E0001A76F8E
:10154A0022EC04F0005220E0920EE96E000EEA6EE0
:10155A002350E926D8B0EA2A090EEE5C15E2920E6B
:10156A00016E000E026E23500126D8B0022A01C075
:10157A00E9FF02C0EAFFEE50010F006E01C0E1FF71
:10158A0002C0E2FF00C0E6FF0001440EA76F22EC92
:10159A0004F000521FE0920EE96E000EEA6E23502C
:1015AA00E926D8B0EA2AEE50000814E2920E016E3B
:1015BA00000E026E23500126D8B0022A01C0E9FFAC
:1015CA0002C0EAFFEE04006E01C0E1FF02C0E2FFC2
:1015DA0000C0E6FF0001520EA76F22EC04F0005291
:1015EA0004E0030E235CD8A0232A00014C0EA76F47
:1015FA0022EC04F0005204E023500008D8A023068D
:10160A000001430EA76F22EC04F0005204E06CECD8
:10161A0003F00A0E1C6E92C079F093C07AF094C05F
:10162A007BF095C07CF014D02450000AD8B471D550
:10163A002450010AD8B4F1D52450020AD8B46FD67E
:10164A002450030AD8B402D72450040AD8B475D750
:02165A0012007C
:10165C0008D0819013D0819611D081940FD08192B3
:10166C000DD00001A251000AF4E0A251010AF3E0EE
:0E167C00A251020AF2E0A251030AF1E01200AC
:10168A0008D0819213D0819411D081960FD0819085
:10169A000DD00001A251000AF4E0A251010AF3E0C0
:0E16AA00A251020AF2E0A251030AF1E012007E
:1016B800A2C0A3F00001A3AF02D0849401D0848417
:1016C800A3916CD084928490829483908290809E1F
:1016D800808C8ED084828490829483808280808E55
:1016E800808C86D084928490828483908290808E2D
:1016F800809C7ED084928490829483908280808E15
:10170800809C76D084828490829483808280809E1C
:10171800809C6ED084928480829483908280809E04
:10172800809C66D084928480829483908290809EEC
:10173800809C5ED084928490829483808280808E04
:10174800808C56D084928490829483908290809EDC
:10175800809C4ED084928490829483908280809ED4
:10176800809C46D0010EA76F03EC00F08482848031
:10177800828483908280808E808C3AD08482848018
:10178800828483808280808E809C32D08492848000
:10179800828483908280808E809C2AD0A251000A05
:1017A80091E0A251010A96E0A251020A9BE0A251DF
:1017B800030AA0E0A251040AA5E0A251050AAAE082
:1017C800A251060AAFE0A251070AB4E0A251080AE2
:1017D800B9E0A251090ABEE0A2510A0AC3E0A25127
:1017E8000B0AC4E0A2510C0AC9E0A2510D0ACEE0CE
:0217F8001200DD
:1017FA00270E0001A26F000EA36F010EA46F92ECD8
:10180A0006F0005202E083968384270EA26F000E30
:10181A00A36F020EA46F92EC06F0005202E08394CA
:10182A008386270EA26F000EA36F030EA46F92EC9D
:0C183A0006F0005202E083968394120036
:1018460084EC02F0005221E02250010A1EE0270E2D
:10185600A76F000EA86F010EA96F000EAA6FAB6FDF
:10186600AC6F020EAD6FFBEC01F0270EA76F000EFA
:10187600A86F050EA96F000EAA6FAB6FAC6F030EB3
:10188600AD6FFBEC01F0010E226E84EC02F000520B
:1018960020E12250000A1DE0270EA76F000EA86F58
:1018A600010EA96F000EAA6FAB6FAC6F010EAD6F84
:1018B600FBEC01F0270EA76F000EA86F050EA96FAF
:1018C600000EAA6FAB6FAC6F030EAD6FFBEC01F0B1
:0418D600226A120070
:1018DA0000019E6B9F6B83B202D09E8101D09E91C4
:1018EA0083BC02D09E8301D09E9382BC02D09E8587
:1018FA0001D09E9583B802D09E8701D09E9783BA65
:10190A0002D09E8901D09E99CED09E51000A0DE048
:10191A002650000A0AE19EC09FF00A0E266EFA0EB1
:10192A00256E010E1B6E9EC01AF0CFD02650000AFB
:10193A0008E19E51000A05E19F6B1A6A0A0E266E9B
:10194A001B6A2650000A0EE19E511A180BE1255017
:10195A00000A08E19EC09FF0020E1B6E320E256E31
:10196A00320E196E2650000A0CE19E511A1809E02F
:10197A009E51000A06E09EC09FF09EC01AF00A0E11
:10198A00266EA3D09E511A180BE12550000A08E1D1
:10199A001950000805E29EC09FF0320E256E190606
:1019AA009E511A180EE12550000A0BE11950000A3F
:1019BA0008E19EC09FF0320E256E320E196E030E9C
:1019CA001B6E9E511A180DE09E51000A0AE09EC035
:1019DA009FF09EC01AF00A0E266EFA0E256E010EB0
:1019EA001B6E9E51000A05E19F6B1A6A0A0E266E4B
:1019FA001B6A6BD09E511A180BE12550000A08E1A8
:101A0A001950000805E29EC09FF0320E256E190695
:101A1A009E511A180CE12550000A09E11950000AD2
:101A2A0006E19EC09FF0320E256E040E1B6E9E517B
:101A3A001A180DE09E51000A0AE09EC09FF09EC04F
:101A4A001AF00A0E266EFA0E256E010E1B6E9E51B4
:101A5A00000A05E19F6B1A6A0A0E266E1B6A35D0C8
:101A6A009E511A1807E12550000A04E19EC09FF012
:101A7A00320E256E9E511A180DE09E51000A0AE098
:101A8A009EC09FF09EC01AF00A0E266EFA0E256EB0
:101A9A00010E1B6E9E51000A05E19F6B1A6A0A0E1F
:101AAA00266E1B6A12D01B50000AD8B42ED71B50C0
:101ABA00010AD8B43BD71B50020AD8B463D71B50CB
:101ACA00030A98E01B50040ACBE09FC000F0120002
:101ADA000900F5CFE6FF0006FBE10106F9E1120075
:101AEA00600ED36E9B8C0F015D6B5C6B806A816AA2
:101AFA00826A836A846A3F0E926EF00E936EE20ED9
:101B0A00946E720E956E080E966EFC0ED76E170EB8
:101B1A00D66E830ED56EF28AF294F28EA00EC86E3D
:101B2A0017EC08F0270E0001A26F000EA36F22EC3B
:081B3A0008F0FAEC06F01200BD
:101B420053EC00F0D00E0001B86FEAEC01F0000196
:101B5200B86BEAEC01F071EC07F0D10E0001B86F3E
:101B6200EAEC01F09EC0A0F09FC0A1F0010E0001BE
:101B7200A26F7CEC06F0A0C0E1FFA1C0E2FF00C0B2
:101B8200E6FF010E00019E25A06F000E9F21A16FAE
:101B9200010EA26F7CEC06F0A0C0E1FFA1C0E2FF43
:101BA20000C0E6FF020E00019E25A06F000E9F21DD
:101BB200A16FA26B7CEC06F0A0C0E1FFA1C0E2FF26
:0A1BC20000C0E6FFE8EC01F012009D
:101BCC00460E00019E25E96E000E9F21EA6EEECFB7
:101BDC0001F0EECF02F0EECF03F0EECF04F00450A4
:101BEC00FF0A08E10350FF0A05E10250FF0A02E177
:101BFC000150FF0A23E0460E9E25046E000E9F2125
:101C0C00056E04C0E9FF05C0EAFF010EEE24006E6C
:101C1C00000EEE20016E000EEE20026E000EEE2085
:101C2C00036E04C0E1FF05C0E2FF00C0E6FF01C087
:101C3C00E6FF02C0E6FF03C0E6FF0AD0460E9E2573
:101C4C00E16E000E9F21E26EE66AE66AE66AE66ADB
:021C5C00120074
:101C5E001650000A06E11C50000A02E0FAEC06F0EB
:101C6E001C6A12D06DEC05F021D010EC06F01ED0DF
:101C7E00ADEC05F01BD08EEC04F018D008EC05F09E
:101C8E0015D08DEC08F012D01C50000AEBE01C5061
:101C9E00010AEBE01C50020AEBE01C50030AEBE0D9
:0E1CAE001C500A0AEBE01C500B0AEBE012007F
:101CBC000001A06BA06B0A0EA05DD8B07CD0070E03
:101CCC00006E000E016EA0C004F0000E056ED7EC85
:101CDC0000F09E5100269F510122050E0024E96E52
:101CEC00000E0120EA6EEE50000A63E1070E006E52
:101CFC00000E016EA0C004F0000E056ED7EC00F0D3
:101D0C009E5100269F510122010E0024E96E000E07
:101D1C000120EA6EEECF05F0EECF06F0EECF07F025
:101D2C00EECF08F0460E9E25D96E000E9F21DA6E7E
:101D3C00DECF01F0DECF02F0DECF03F0DECF04F019
:101D4C000850041808E10750031805E10650021862
:101D5C0002E1055001182DE1070E006E000E016E18
:101D6C00A0C004F0000E056ED7EC00F09E510026CA
:101D7C009F510122060E0024E96E000E0120EA6E2E
:101D8C00EE50000A16E1070E006E000E016EA0C0A8
:101D9C0004F0000E056ED7EC00F09E5100269F510A
:101DAC000122060E0024E16E000E0120E26E010EEF
:081DBC00E66EA02B80D7120097
:101DC40026500008D8A0260625500008D8A02506CD
:021DD4001200FB
:101DD6001850000A2EE188EC08F0040E00019E253A
:101DE600D96E000E9F21DA6EDECF00F000509E25E0
:101DF600E96E000E9F21EA6EEECFA2F076EC07F0B8
:101E0600040E9E25E96E000E9F21EA6EEE50010A31
:101E160005E121B002D0849401D084840001040E2F
:101E26009E25E96E000E9F21EA6EEECFA2F013DC2E
:101E36002DD088EC08F0040E00019E25D96E000E08
:101E46009F21DA6EDECF00F000509E25E96E000E6F
:101E56009F21EA6EEECFA2F02CDC040E9E25E96EE1
:101E6600000E9F21EA6EEE50020A05E121B002D073
:101E7600849401D084840001040E9E25E96E000E30
:101E86009F21EA6EEECFA2F045EC0BF0040E0001A6
:101E96009E25016E000E9F21026E01C0E9FF02C061
:101EA600EAFFEE50010F006E01C0E1FF02C0E2FF43
:101EB60000C0E6FF040E9E25E96E000E9F21EA6E25
:101EC600040EEE5C07E3040E9E25E16E000E9F21D4
:061ED600E26EE66A120054
:101EDC00D6EC0FF004DE9D6B030E9D5D1CE2838E31
:101EEC00050E0B6E0F0E0C6EF10E0D6E0D2EFED739
:101EFC000C2EFCD70B2EFAD7839E050E0B6E0F0EF5
:101F0C000C6EF10E0D6E0D2EFED70C2EFCD70B2E7B
:101F1C00FAD79D2BE1D7205208E04EDF790E000155
:101F2C009E6F000E9F6F51DF206A1F5228E01650E3
:101F3C000008D8A016061C50000A06E12152010E1A
:101F4C00D8A4000E216E02D0010E216E270E9E6FBA
:101F5C00000E9F6F35DE270E9E6F000E9F6FA8DE62
:101F6C00960E9E6F000E9F6FE6DD010E000196151A
:101F7C00006E00B002D0839E01D0838E1F6AA7DC56
:0E1F8C0000C017F066DE59DC32DCC5D7FFD787
:101FAC0010EE16F0110E006E010E016E9A0EF66E0A
:0E1FBC001F0EF76E000EF86E6DEC0DF01200A9
:011F9A000046
:011F9B000045
:011F9C000143
:011F9D000043
:011F9E000042
:011F9F000041
:011FA0000040
:011FA100003F
:011FA200003E
:011FA300003D
:011FA400003C
:011FA500013A
:011FA6000238
:011FA7000039
:011FA8000038
:011FA9000037
:011FAA000036
:020000040030CA
:0E0000001518777CFF8991FF0FC00FE00F40AD
:0200000400F00A
:1000000002020000000700000102030401020304D1
:1000100001FFFFFFFFFFFFFFFFFFFFFFFFFFFFFFEE
:10002000FFFFFFFFFFFFFFFFFFFFFFFFFFFFFFFFE0
:10003000FFFFFFFFFFFFFFFFFFFFFFFFFFFFFFFFD0
:10004000FFFFFFFFFFFFFFFFFFFFFFFFFFFFFFFFC0
:10005000FFFFFFFFFFFFFFFFFFFFFFFFFFFFFFFFB0
:00000001FF
